{
  "contractName": "CoShoe",
  "abi": [
    {
      "inputs": [],
      "payable": true,
      "stateMutability": "payable",
      "type": "constructor"
    },
    {
      "constant": true,
      "inputs": [],
      "name": "owner",
      "outputs": [
        {
          "internalType": "address",
          "name": "",
          "type": "address"
        }
      ],
      "payable": false,
      "stateMutability": "view",
      "type": "function"
    },
    {
      "constant": true,
      "inputs": [
        {
          "internalType": "uint256",
          "name": "",
          "type": "uint256"
        }
      ],
      "name": "shoes",
      "outputs": [
        {
          "internalType": "address",
          "name": "owner",
          "type": "address"
        },
        {
          "internalType": "string",
          "name": "name",
          "type": "string"
        },
        {
          "internalType": "string",
          "name": "image",
          "type": "string"
        },
        {
          "internalType": "bool",
          "name": "sold",
          "type": "bool"
        }
      ],
      "payable": false,
      "stateMutability": "view",
      "type": "function"
    },
    {
      "constant": false,
      "inputs": [
        {
          "internalType": "uint256",
          "name": "amount",
          "type": "uint256"
        }
      ],
      "name": "mint",
      "outputs": [],
      "payable": false,
      "stateMutability": "nonpayable",
      "type": "function"
    },
    {
      "constant": true,
      "inputs": [],
      "name": "getshoecount",
      "outputs": [
        {
          "internalType": "uint256",
          "name": "",
          "type": "uint256"
        }
      ],
      "payable": false,
      "stateMutability": "view",
      "type": "function"
    },
    {
      "constant": false,
      "inputs": [
        {
          "internalType": "string",
          "name": "name",
          "type": "string"
        },
        {
          "internalType": "string",
          "name": "image",
          "type": "string"
        }
      ],
      "name": "buyShoe",
      "outputs": [
        {
          "internalType": "address",
          "name": "",
          "type": "address"
        },
        {
          "internalType": "string",
          "name": "",
          "type": "string"
        },
        {
          "internalType": "string",
          "name": "",
          "type": "string"
        },
        {
          "internalType": "bool",
          "name": "",
          "type": "bool"
        },
        {
          "internalType": "uint256",
          "name": "",
          "type": "uint256"
        }
      ],
      "payable": true,
      "stateMutability": "payable",
      "type": "function"
    },
    {
      "constant": true,
      "inputs": [],
      "name": "checkPurchases",
      "outputs": [
        {
          "internalType": "bool[]",
          "name": "",
          "type": "bool[]"
        }
      ],
      "payable": false,
      "stateMutability": "view",
      "type": "function"
    }
  ],
  "bytecode": "0x60806040526706f05b59d3b200006001556000600255336000806101000a81548173ffffffffffffffffffffffffffffffffffffffff021916908373ffffffffffffffffffffffffffffffffffffffff1602179055506200006760646200006d60201b60201c565b620003d6565b6000809054906101000a900473ffffffffffffffffffffffffffffffffffffffff1673ffffffffffffffffffffffffffffffffffffffff163373ffffffffffffffffffffffffffffffffffffffff161462000130576040517f08c379a00000000000000000000000000000000000000000000000000000000081526004018080602001828103825260138152602001807f4f6e6c79204f6e7765722063616e204d696e740000000000000000000000000081525060200191505060405180910390fd5b60648114620001a7576040517f08c379a00000000000000000000000000000000000000000000000000000000081526004018080602001828103825260198152602001807f416d6f756e74206973206e6f742031303020746f6b656e732e0000000000000081525060200191505060405180910390fd5b60008090505b818110156200032357606060405180602001604052806000815250905060606040518060200160405280600081525090506000809050600360405180608001604052806000809054906101000a900473ffffffffffffffffffffffffffffffffffffffff1673ffffffffffffffffffffffffffffffffffffffff1681526020018581526020018481526020018315158152509080600181540180825580915050906001820390600052602060002090600402016000909192909190915060008201518160000160006101000a81548173ffffffffffffffffffffffffffffffffffffffff021916908373ffffffffffffffffffffffffffffffffffffffff1602179055506020820151816001019080519060200190620002cf92919062000327565b506040820151816002019080519060200190620002ee92919062000327565b5060608201518160030160006101000a81548160ff0219169083151502179055505050505050508080600101915050620001ad565b5050565b828054600181600116156101000203166002900490600052602060002090601f016020900481019282601f106200036a57805160ff19168380011785556200039b565b828001600101855582156200039b579182015b828111156200039a5782518255916020019190600101906200037d565b5b509050620003aa9190620003ae565b5090565b620003d391905b80821115620003cf576000816000905550600101620003b5565b5090565b90565b610f9e80620003e66000396000f3fe6080604052600436106100555760003560e01c8063540a2f4f1461005a578063558a2b8b146102d6578063607473cf146103425780638da5cb5b146104a0578063a0712d68146104f7578063dab1688214610532575b600080fd5b6101aa6004803603604081101561007057600080fd5b810190808035906020019064010000000081111561008d57600080fd5b82018360208201111561009f57600080fd5b803590602001918460018302840111640100000000831117156100c157600080fd5b91908080601f016020809104026020016040519081016040528093929190818152602001838380828437600081840152601f19601f8201169050808301925050505050505091929192908035906020019064010000000081111561012457600080fd5b82018360208201111561013657600080fd5b8035906020019184600183028401116401000000008311171561015857600080fd5b91908080601f016020809104026020016040519081016040528093929190818152602001838380828437600081840152601f19601f82011690508083019250505050505050919291929050505061055d565b604051808673ffffffffffffffffffffffffffffffffffffffff1673ffffffffffffffffffffffffffffffffffffffff168152602001806020018060200185151515158152602001848152602001838103835287818151815260200191508051906020019080838360005b83811015610230578082015181840152602081019050610215565b50505050905090810190601f16801561025d5780820380516001836020036101000a031916815260200191505b50838103825286818151815260200191508051906020019080838360005b8381101561029657808201518184015260208101905061027b565b50505050905090810190601f1680156102c35780820380516001836020036101000a031916815260200191505b5097505050505050505060405180910390f35b3480156102e257600080fd5b506102eb6108ac565b6040518080602001828103825283818151815260200191508051906020019060200280838360005b8381101561032e578082015181840152602081019050610313565b505050509050019250505060405180910390f35b34801561034e57600080fd5b5061037b6004803603602081101561036557600080fd5b81019080803590602001909291905050506109c6565b604051808573ffffffffffffffffffffffffffffffffffffffff1673ffffffffffffffffffffffffffffffffffffffff168152602001806020018060200184151515158152602001838103835286818151815260200191508051906020019080838360005b838110156103fb5780820151818401526020810190506103e0565b50505050905090810190601f1680156104285780820380516001836020036101000a031916815260200191505b50838103825285818151815260200191508051906020019080838360005b83811015610461578082015181840152602081019050610446565b50505050905090810190601f16801561048e5780820380516001836020036101000a031916815260200191505b50965050505050505060405180910390f35b3480156104ac57600080fd5b506104b5610b60565b604051808273ffffffffffffffffffffffffffffffffffffffff1673ffffffffffffffffffffffffffffffffffffffff16815260200191505060405180910390f35b34801561050357600080fd5b506105306004803603602081101561051a57600080fd5b8101908080359060200190929190505050610b85565b005b34801561053e57600080fd5b50610547610e37565b6040518082815260200191505060405180910390f35b6000606080600080600380549050600254106105e1576040517f08c379a000000000000000000000000000000000000000000000000000000000815260040180806020018281038252600e8152602001807f4e6f2073686f6573206c6566742e00000000000000000000000000000000000081525060200191505060405180910390fd5b6001543414610658576040517f08c379a00000000000000000000000000000000000000000000000000000000081526004018080602001828103825260108152602001807f4e6f7420656e6f756768206d6f6e65790000000000000000000000000000000081525060200191505060405180910390fd5b600060036002548154811061066957fe5b9060005260206000209060040201905087816001019080519060200190610691929190610e44565b50868160020190805190602001906106aa929190610e44565b50338160000160006101000a81548173ffffffffffffffffffffffffffffffffffffffff021916908373ffffffffffffffffffffffffffffffffffffffff16021790555060018160030160006101000a81548160ff0219169083151502179055506002600081548092919060010191905055508060000160009054906101000a900473ffffffffffffffffffffffffffffffffffffffff1681600101826002018360030160009054906101000a900460ff16600254838054600181600116156101000203166002900480601f0160208091040260200160405190810160405280929190818152602001828054600181600116156101000203166002900480156107f45780601f106107c9576101008083540402835291602001916107f4565b820191906000526020600020905b8154815290600101906020018083116107d757829003601f168201915b50505050509350828054600181600116156101000203166002900480601f0160208091040260200160405190810160405280929190818152602001828054600181600116156101000203166002900480156108905780601f1061086557610100808354040283529160200191610890565b820191906000526020600020905b81548152906001019060200180831161087357829003601f168201915b5050505050925095509550955095509550509295509295909350565b6060806003805490506040519080825280602002602001820160405280156108e35781602001602082028038833980820191505090505b50905060008090505b6003805490508110156109be573373ffffffffffffffffffffffffffffffffffffffff166003828154811061091d57fe5b906000526020600020906004020160000160009054906101000a900473ffffffffffffffffffffffffffffffffffffffff1673ffffffffffffffffffffffffffffffffffffffff16141561099057600182828151811061097957fe5b6020026020010190151590811515815250506109b1565b600082828151811061099e57fe5b6020026020010190151590811515815250505b80806001019150506108ec565b508091505090565b600381815481106109d357fe5b90600052602060002090600402016000915090508060000160009054906101000a900473ffffffffffffffffffffffffffffffffffffffff1690806001018054600181600116156101000203166002900480601f016020809104026020016040519081016040528092919081815260200182805460018160011615610100020316600290048015610aa55780601f10610a7a57610100808354040283529160200191610aa5565b820191906000526020600020905b815481529060010190602001808311610a8857829003601f168201915b505050505090806002018054600181600116156101000203166002900480601f016020809104026020016040519081016040528092919081815260200182805460018160011615610100020316600290048015610b435780601f10610b1857610100808354040283529160200191610b43565b820191906000526020600020905b815481529060010190602001808311610b2657829003601f168201915b5050505050908060030160009054906101000a900460ff16905084565b6000809054906101000a900473ffffffffffffffffffffffffffffffffffffffff1681565b6000809054906101000a900473ffffffffffffffffffffffffffffffffffffffff1673ffffffffffffffffffffffffffffffffffffffff163373ffffffffffffffffffffffffffffffffffffffff1614610c47576040517f08c379a00000000000000000000000000000000000000000000000000000000081526004018080602001828103825260138152602001807f4f6e6c79204f6e7765722063616e204d696e740000000000000000000000000081525060200191505060405180910390fd5b60648114610cbd576040517f08c379a00000000000000000000000000000000000000000000000000000000081526004018080602001828103825260198152602001807f416d6f756e74206973206e6f742031303020746f6b656e732e0000000000000081525060200191505060405180910390fd5b60008090505b81811015610e3357606060405180602001604052806000815250905060606040518060200160405280600081525090506000809050600360405180608001604052806000809054906101000a900473ffffffffffffffffffffffffffffffffffffffff1673ffffffffffffffffffffffffffffffffffffffff1681526020018581526020018481526020018315158152509080600181540180825580915050906001820390600052602060002090600402016000909192909190915060008201518160000160006101000a81548173ffffffffffffffffffffffffffffffffffffffff021916908373ffffffffffffffffffffffffffffffffffffffff1602179055506020820151816001019080519060200190610de2929190610ec4565b506040820151816002019080519060200190610dff929190610ec4565b5060608201518160030160006101000a81548160ff0219169083151502179055505050505050508080600101915050610cc3565b5050565b6000600380549050905090565b828054600181600116156101000203166002900490600052602060002090601f016020900481019282601f10610e8557805160ff1916838001178555610eb3565b82800160010185558215610eb3579182015b82811115610eb2578251825591602001919060010190610e97565b5b509050610ec09190610f44565b5090565b828054600181600116156101000203166002900490600052602060002090601f016020900481019282601f10610f0557805160ff1916838001178555610f33565b82800160010185558215610f33579182015b82811115610f32578251825591602001919060010190610f17565b5b509050610f409190610f44565b5090565b610f6691905b80821115610f62576000816000905550600101610f4a565b5090565b9056fea265627a7a723158208f1f39e561006a23131b6e7e286be46992393ba125d98858318b13abeb8c3a8e64736f6c63430005100032",
  "source": "\npragma solidity >=0.5.0;\n//assume I must import Ownable.sol to make it non-fungible?\nimport \"./Ownable.sol\";\n//create contract with non-fungible tokens\ncontract CoShoe {\n\n    address public owner;\n    //create struct in contract\n    struct Shoe {\n        address owner;\n        string name;\n        string image;\n        bool sold;\n    }\n    //Define a state variable called ​price​ and set it to 0.5 Ether, converted to Wei\n    //??\n    uint price = 0.5 ether ;\n\n    //Define a state variable called ​shoesSold​ that\n    //holds the number of shoes that have already been sold. Set it to 0.\n    // ??\n    uint shoeSold = 0;\n\n    //Define a public array called ​shoes​ that holds instances of ​Shoe\n    Shoe[] public shoes;\n\n    //Implement a constructor that mints 100 ​CoShoe​ tokens. The ​owner​ of each\n    //token is the address deploying the contract, ​name​ and ​image​\n    //are empty strings (​“”​), and ​sold​ is equal to ​false​.\n    //Add the instances of ​Shoe​ to the array shoes​.\n    // not sure about this one?\n    function mint(uint amount) public {\n        require(msg.sender == owner, \"Only Onwer can Mint\");\n        require(amount == 100, \"Amount is not 100 tokens.\");\n        for (uint i = 0; i < amount; i++) {\n            string memory name = string(\"\");\n            string memory image = string(\"\");\n            bool sold = false;\n            shoes.push(Shoe(owner, name, image, sold));\n        }\n\n    }\n\n    constructor () public payable {\n        owner = msg.sender;\n        mint(100);\n    }\n\n    function getshoecount() public view returns(uint) {\n        return shoes.length;\n    }\n\n    //f. Implement a function called ​buyShoe​ that\n        //i. Takes the input parameters ​name​, i​mage\n        //ii. Checks that there is still a pair of shoes left that has not been sold yet, otherwise it throws an error\n        //iii. Checks that the value that is attached to the function call equal the price​, otherwise it throws an error\n        //iv. Transfers the ownership of a ​Shoe​ to the caller of the function by setting owner​ within the ​Shoe​ struct, setting ​name​ and ​image​ to the input variables, and changing ​sold​ to ​true\n        //v. Don’t forget to update soldShoes\n\n    function buyShoe(string memory name, string memory image) public payable returns(address, string memory, string memory, bool, uint ) {\n        require(shoeSold < shoes.length, \"No shoes left.\");\n        require(msg.value == price, \"Not enough money\");\n        Shoe storage shoe = shoes[shoeSold];\n        shoe.name = name;\n        shoe.image = image;\n        shoe.owner = msg.sender;\n        shoe.sold = true;\n        shoeSold++;\n        return(shoe.owner, shoe.name, shoe.image, shoe.sold, shoeSold);\n        }\n    // Implement a function called that\n        //i.returns an array of bools that are set to true if the\n        //equivalent index in shoes​ belongs to caller of this function\n        //ii.Remember to implement it in a gas saving manor\n    // not sure about this one either\n\n    function checkPurchases() public view returns(bool[] memory){\n        bool[] memory soldshoes = new bool[](shoes.length);\n        for (uint i=0; i < shoes.length; i++) {\n            if (shoes[i].owner == msg.sender) {\n            soldshoes[i] = true;\n            }\n            else {\n                soldshoes[i] = false;\n            }\n        }\n        return soldshoes;\n    }\n\n}",
  "sourcePath": "/Users/myhome/CoShoe/contracts/CoShoe.sol",
  "compiler": {
    "name": "solc",
    "version": "0.5.16+commit.9c3226ce.Emscripten.clang"
  },
  "schemaVersion": "3.0.23",
  "updatedAt": "2020-03-31T12:53:05.937Z",
  "devdoc": {
    "methods": {}
  },
  "userdoc": {
    "methods": {}
  }
}